:030000000205B442
:0C05B400787FE4F6D8FD75813A0205FB63
:060003002530386C750089
:0D0722000136000437000000000234000022
:03000B000204CE1E
:1004CE00C0E0C0F0C083C082C0D075D000C000C0F4
:0D04DE0001C002C003C004C005C006C00775
:1004EB000535E53570020534758CFC758A18AE340C
:1004FB00AF357C007D0A1203C9ED64024C7002C259
:10050B0090ED4C7002D290E53564E87004E53464EC
:10051B0003707BF534F535AF36FCFDFEFBFA790144
:10052B00F812041EA804A905AA06AB07AF8DEFFEAF
:10053B00E4FCFD2BFBEA3EFAED39F9EC38F8AF8B16
:10054B00E4FEEB2FFFEE3AFEED39FDEC388F3A8EE1
:10055B00398D38F537753600758D00758B00750B39
:10056B00FF750C00750D03853A1185391085380F11
:10057B0085370E7B007A00792C12007A750B00758B
:0E058B000C00750D247B007A00792C120640BE
:10059900D007D006D005D004D003D002D001D000B6
:0B05A900D0D0D082D083D0F0D0E03260
:03001B0002000ED2
:03000E0005363282
:1006EF00758951758CFC758A1875A88AD28CD28E33
:0B06FF007B007A00792412069180F540
:10070A0030C031F932A433B034993592368237F891
:08071A00388039902DBF20FF4B
:06072F000122000123FE7F
:060640008B088A09890AFB
:10064600E4FFE4FEAB08AA09A90A8F8275830012AB
:10065600037AFDEE25E0240AF582E43407F583E407
:1006660093B5051EEE25E0240BF582E43407F583E9
:10067600E493AB0BAA0CA90D8F827583001203A716
:0A06860080040EBE0CBE0FBF08B8C2
:010690002247
:1006910075A0FF85228275830012037AF5A0852358
:1006A10080AF237801EF08800123D8FDF523E4FF13
:1006B100FE0FBF00010EBE01F8BFF4F50522E522D1
:0606C100B40803E4F52279
:0106C7002210
:1005C0000206EFE493A3F8E493A34003F68001F25C
:1005D00008DFF48029E493A3F85407240CC8C3333C
:1005E000C4540F4420C8834004F456800146F6DF0B
:1005F000E4800B0102040810204080900722E47E72
:10060000019360BCA3FF543F30E509541FFEE493FF
:10061000A360010ECF54C025E060A840B8E493A3C6
:10062000FAE493A3F8E493A3C8C582C8CAC583CAF1
:10063000F0A3C8C582C8CAC583CADFE9DEE780BEA9
:0107350000C3
:10037A00BB010CE58229F582E5833AF583E0225038
:10038A0006E92582F8E622BBFE06E92582F8E22282
:0D039A00E58229F582E5833AF583E493229C
:1003A700F8BB010DE58229F582E5833AF583E8F08C
:1003B700225006E92582C8F622BBFE05E92582C838
:0203C700F22220
:1003C900BC000BBE0029EF8DF084FFADF022E4CC18
:1003D900F875F008EF2FFFEE33FEEC33FCEE9DECE1
:1003E900984005FCEE9DFE0FD5F0E9E4CEFD22ED27
:1003F900F8F5F0EE8420D21CFEADF075F008EF2F71
:10040900FFED33FD4007985006D5F0F222C398FD61
:050419000FD5F0EA22FE
:10041E00E88FF0A4CC8BF0A42CFCE98EF0A42CFC7D
:10042E008AF0EDA42CFCEA8EF0A4CDA8F08BF0A4FB
:10043E002DCC3825F0FDE98FF0A42CCD35F0FCEB5A
:10044E008EF0A4FEA9F0EB8FF0A4CFC5F02ECD391F
:0F045E00FEE43CFCEAA42DCE35F0FDE43CFC228C
:10001E00E517240BF8E60517227808300702780B4F
:10002E00E475F00112049802046D2000EB7F2ED2CD
:10003E00008018EF540F2490D43440D4FF30040BBA
:10004E00EF24BFB41A0050032461FFE518600215B7
:10005E0018051BE51B7002051A30070D7808E475AC
:10006E00F001120498EF0204860206C87403D20748
:10007E008003E4C207F5178B088A09890AE4F5188C
:10008E00F51AF51BE51860077F2012005980F575EB
:10009E0019FFC201C200C202C203C205C206C208D3
:1000AE00120027FF700D3007057F0012006AAF1B8C
:1000BE00AE1A22B4255FC2D5C204120027FF24D087
:1000CE00B40A00501A75F00A781830D50508B6FF34
:1000DE000106C6A426F620D5047002D20380D924C8
:1000EE00CFB41A00EF5004C2E5D20402026AD20164
:1000FE0080C6D20080C0D20280BCD2D580BAD205D2
:10010E0080B47F201200592002077401B5180040F8
:10011E00F112001EFF120059020092D208D2068080
:10012E009512001EFB12001EFA12001EF94A4B70A9
:10013E0006793B7A037BFF20022EE518602A7E00AB
:10014E008E8275830012037A60060EEE651970F0CA
:10015E00C2D5EBC0E0EAC0E0E9C0E0EE1202B1D0D9
:10016E00E0F9D0E0FAD0E0FB12046DFF60AAEBC01C
:10017E00E0EAC0E0E9C0E0120059D0E02401F9D075
:10018E00E03400FAD0E0FBE5190460DCD519D98023
:10019E00877BFF7A0279ADD202809C79108002793A
:1001AE0008C206C2088008D2D5790A8004790AC22C
:1001BE00D5E519047002F519E4FAFDFEFF12001ED2
:1001CE00FC7B0820011312001EFD7B1030000A126A
:1001DE00001EFE12001EFF7B20EC3382D592D550FE
:1001EE0013C3E43000069FFFE49EFEE42001039D4E
:1001FE00FDE49CFCE4CBF8C201EC700CCFCECDCC70
:10020E00E824F8F870F38017C3EF33FFEE33FEEDFA
:10021E0033FDEC33FCEB33FB994002FB0FD8E9EBDB
:10022E00300105F8D0E0C448B201C0E00AEC4D4EF2
:10023E004F78207B0070C2EAB5190040BCC0E012B6
:10024E0002B3D0F0D0E0200104C4C0E0C4B201C0BB
:10025E00F0120042D0F0D5F0EB0200921204A80189
:10026E002F5301A95801004C00FC4201AD4F01B5BE
:0F027E004401B54901154301BB55019F46019F3E
:10028D0045019F47035B5001042D01082E012B2BC7
:10029D00010C2301292003442A00C4480000012336
:1002AD003F3F3F00790AA2D5200314300509B9104C
:1002BD00020404B9080104A2D5200602500104204D
:1002CD0002689202B518005034C0E07F2030031947
:1002DD007F30A20272067205500F12030AC202C2CB
:1002ED0006C205C2087F30800F300503E9C0E01259
:1002FD000059300503D0E0F9D0E0B518CC30051722
:10030D007F30B9100C1200597F583004077F788068
:10031D0003B908031200593002057F2D0200597FE1
:10032D00202008F87F2B2006F322920280CF286E22
:10033D00756C6C2900D20112001E3001F8C20178D3
:10034D001830D50108F60200C42D5043495812004B
:10035D001E2403B405004001E49003569312004A95
:0D036D00743A12004AD2037518040201A967
:10046D00BB010689828A83E0225002E722BBFE028D
:09047D00E32289828A83E49322C0
:10048600BB010689828A83F0225002F722BBFE0155
:02049600F3224F
:10049800FAE6FB0808E6F925F0F618E6CA3AF62265
:1004A800D083D082F8E4937012740193700DA3A3E3
:1004B80093F8740193F5828883E4737402936860F7
:0604C800EFA3A3A380DFF7
:1006C800EFB40A07740D1206D3740A309811A8996A
:1006D800B8130CC2983098FDA899C298B811F63092
:0706E80099FDC299F599226A
:00000001FF
