:0300000002017E7C
:0C017E00787FE4F6D8FD75810F0200F9CF
:10016B00C0F9A4B0999282F88090BF0A0A0A0A0AD1
:03017B000A0A0A63
:1000F90078087C007D007BFF7A0179767E007F0895
:100109001200D37F177E3B7D3B7CFEEF75F00A849E
:10011900F508EF75F00A8485F009EE75F00A84F5A3
:100129000BEE75F00A8485F00CED75F00A84F50E76
:10013900ED75F00A8485F00FE4FE75A0FF74082EB2
:10014900F8E690016B93F5A08C80E4FF0FBFFFFCEC
:100159007801AF04EF08800123D8FDFC0EBE08DA50
:0201690080D63E
:10000300E709F608DFFA8046E709F208DFFA803EDF
:1000130088828C83E709F0A3DFFA8032E309F608CC
:10002300DFFA8078E309F208DFFA807088828C8334
:10003300E309F0A3DFFA806489828A83E0A3F608E8
:10004300DFFA805889828A83E0A3F208DFFA804CC2
:1000530080D280FA80C680D4806980F28033801099
:1000630080A680EA809A80A880DA80E280CA803302
:1000730089828A83ECFAE493A3C8C582C8CCC5837A
:10008300CCF0A3C8C582C8CCC583CCDFE9DEE7804A
:100093000D89828A83E493A3F608DFF9ECFAA9F0C9
:1000A300EDFB2289828A83ECFAE0A3C8C582C8CC1F
:1000B300C583CCF0A3C8C582C8CCC583CCDFEADE38
:1000C300E880DB89828A83E493A3F208DFF980CC9A
:1000D30088F0EF60010E4E60C388F0ED2402B40493
:1000E3000050B9F582EB2402B4040050AF2323453A
:0600F3008223900053730C
:00000001FF
