:03000000020107F3
:0C010700787FE4F6D8FD75810A02000341
:1000E8007FFEE4FE8FB0E5B06F6003AFB022780109
:0E00F800EF08800123D8FDFF0EBE04E87FFF55
:0101060022D6
:10000300E4F50875097F750AFE1200E8EF244360E2
:100013001124E2601224F46013246970127508013C
:10002300800D75080280087508038003E4F508E570
:100033000870057590FF80D1E5086401703085096B
:1000430090AF097801EF08800103D8FDF509AF0AE5
:100053007801EF08800123D8FDF50AE4FCFDC3ED28
:100063009480EC948D50A20DBD00010C80F0E50846
:1000730064027032AF0A7801EF08800103D8FDF5FE
:100083000AAF097801EF08800123D8FDF509F5903F
:10009300E4FCFDC3ED9480EC948D400302000C0D51
:1000A300BD00010C80EDE5086403600302000CE56C
:1000B30009550AF590AF097801EF08800103D8FDCF
:1000C300F509AF0A7801EF08800123D8FDF50AE4AA
:1000D300FCFDC3ED9480EC948D400302000C0DBD38
:0500E30000010C80ED9E
:00000001FF
