:0300000002017981
:0C017900787FE4F6D8FD758107020003D2
:10000300E4FB7A7F79FE30B0030200A2E4FEFFE452
:10001300FCFD0DBD00010CBC2EF8BDE0F50FBF00CB
:10002300010EBE01EABFF4E730B0077590FFE4FBB1
:10003300806D75907F7B01E4FEFFE4FCFD0DBD0048
:10004300010CBC2EF8BDE0F50FBF00010EBE01EAA6
:10005300BFF4E730B002804775903F7B02E4FEFFB8
:10006300E4FCFD0DBD00010CBC2EF8BDE0F50FBF97
:1000730000010EBE01EABFF4E730B00280217590A3
:100083001F7B03E4FEFFE4FCFD0DBD00010CBC2E51
:10009300F8BDE0F50FBF00010EBE01EABFF4E7EBC8
:1000A30070067590FF020009EB6401703E8A907838
:1000B30001AF02EF08800103D8FDFA7801AF01EF29
:1000C30008800123D8FDF9E4FEFFC3EF94FAEE9410
:1000D300004003020009E4FCFD0DBD00010CBC2E31
:1000E300F8BDE0F50FBF00010E80DFEB6402703E48
:1000F3008A907801AF02EF08800123D8FDFA7801D6
:10010300AF01EF08800103D8FDF9E4FEFFC3EF94CC
:10011300FAEE94004003020009E4FCFD0DBD00016A
:100123000CBC2EF8BDE0F50FBF00010E80DFEB64C1
:10013300036003020009EA59F5907801AF02EF0862
:10014300800103D8FDFA7801AF01EF08800123D8BD
:10015300FDF9E4FEFFC3EF94FAEE940040030200BE
:1001630009E4FCFD0DBD00010CBC2EF8BDE0F50F4C
:06017300BF00010E80DF59
:00000001FF
