:0300000002000EED
:0C000E00787FE4F6D8FD75810D020055E6
:1000D400010938010B39010C08010A00010D000166
:0200E400080012
:03000B0002009A56
:04009A00C0E0C0D032
:10009E000508758CFC758A17E508B50A02B290E55D
:0900AE0008B50D05B290750800BB
:0500B700D0D0D0E032C2
:1000BC00750A02E50A04F50D758911758CFC758AB3
:0800CC001775A88FD28C80FE8D
:10001A000200BCE493A3F8E493A34003F68001F240
:10002A0008DFF48029E493A3F85407240CC8C333E7
:10003A00C4540F4420C8834004F456800146F6DFB6
:10004A00E4800B01020408102040809000D4E47E72
:10005A00019360BCA3FF543F30E509541FFEE493AB
:10006A00A360010ECF54C025E060A840B8E493A372
:10007A00FAE493A3F8E493A3C8C582C8CAC583CA9D
:10008A00F0A3C8C582C8CAC583CADFE9DEE780BE55
:0100E6000019
:00000001FF
