:030000000200C734
:0C00C700787FE4F6D8FD75810702000385
:100003007E037B7F7AFE20B002E4FE20B1027E01F4
:1000130020B2027E0220B3027E03BE03057590FF69
:1000230080E4EE702F8B907801AF03EF088001031B
:10003300D8FDFB7801AF02EF08800123D8FDFAE475
:10004300FCFDC3ED9410EC648094A750B90DBD0082
:10005300010C80EEEE6401702F7801AF02EF08808F
:100063000103D8FDFA7801AF03EF08800123D8FD1F
:10007300FBF590E4FCFDC3ED9410EC648094A75071
:10008300850DBD00010C80EEEE64026003020009E1
:10009300EB5AF5907801AF03EF08800103D8FDFB1D
:1000A3007801AF02EF08800123D8FDFAE4FCFDC319
:1000B300ED9410EC648094A740030200090DBD0089
:0400C300010C80EBC1
:00000001FF
