:030000000209AC46
:0C09AC00787FE4F6D8FD75814E0209F357
:0A0B6C004320202020252E316600D2
:100ABB007FCD7ECC7DCC7C417536FF75370B753881
:100ACB006C8F3C8E3B8D3A8C397B007A00792212ED
:100ADB00059975360075370075382B7B007A0079D0
:100AEB0022120A387B007A00792B120B00E4FF0FDD
:050AFB00BFFFFC80EFCD
:100B500030C031F932A433B034993592368237F847
:0C0B6000388039902DBF2E7F20FF43C647
:060B76000108000109FE68
:060A38008B338A3489357E
:100A3E00E4FFF539E539C394085071E4FEAB33AAEF
:100A4E0034A9358F827583001204A6FDEE25E024AD
:100A5E0050F582E4340BF583E493B5051FEE25E0E3
:100A6E002451F582E4340BF583E493AB36AA37A90F
:100A7E00388539827583001204E580040EBE0EBDE2
:100A8E00EFF582758300A3AB33AA34A9351204A601
:100A9E00B42E14AB36E5382539F9E43537FA12049D
:0C0AAE008D547F1204D30F05390F80888F
:010ABA002219
:100B000075A0FF8508827583001204A6F5A08509EB
:100B100080AF097801EF08800123D8FDF5090508A9
:080B2000E508B40803E4F50840
:010B280022AA
:10053D00E54A2436F8E6054A227833300702783644
:10054D00E475F00112050702048D2000EB7F2ED219
:10055D00008018EF540F2490D43440D4FF30040B96
:10056D00EF24BFB41A0050032461FFE54B60021560
:10057D004B054EE54E7002054D30070D7833E47591
:10058D00F001120507EF0204D3020B297403D20701
:10059D008003E4C207F54A8B338A348935E4F54B81
:1005AD00F54DF54EE54B60077F2012057880F5750A
:1005BD004CFFC201C200C202C203C205C206C2087C
:1005CD00120546FF700D3007057F00120589AF4EED
:1005DD00AE4D22B4255FC2D5C204120546FF24D00C
:1005ED00B40A00501A75F00A784B30D50508B6FFDD
:1005FD000106C6A426F620D5047002D20380D924A4
:10060D00CFB41A00EF5004C2E5D204020876D2012D
:10061D0080C6D20080C0D20280BCD2D580BAD205AD
:10062D0080B47F201205782002077401B54B00407D
:10063D00F112053DFF1205780205B1D208D20680F0
:10064D009512053DFB12053DFA12053DF94A4B7019
:10065D0006796D7A097BFF20022EE54B602A7E001C
:10066D008E827583001204A660060EEE654C70F046
:10067D00C2D5EBC0E0EAC0E0E9C0E0EE1208D6D08A
:10068D00E0F9D0E0FAD0E0FB12048DFF60AAEBC0D8
:10069D00E0EAC0E0E9C0E0120578D0E02401F9D02D
:1006AD00E03400FAD0E0FBE54C0460DCD54CD98099
:1006BD0087D20280A21208B960F7E54C70010412CE
:1006CD000003A94C600DE54C600914F54C1209604E
:1006DD00EF60F3EA30E702F404C3995077EAF425AA
:1006ED004C0430E701E404F54C800D1208B960C1EB
:1006FD00EA054C254C120003EA7849F630E701E48F
:10070D00254C04D54C04200501141208D6E4C0E094
:10071D001209607849E6601320E70714F6120560A8
:10072D00802204F6D0E014C0E07F00120560E54C95
:10073D006007120557154C800B300503120557D075
:10074D00E00205B1D0E00480C51208B960A0E54C07
:10075D00041200037849EAF6E54C20050260010415
:05076D0024041208D66F
:1007720074FF04C0E0120960120560E54C20050216
:100782006003120557D0E0B54CE87F4512056A7840
:1007920049E67F2B30E7047F2DF404C0E012057890
:1007A200D0E075F00A84C0F0120561D0E012056154
:1007B2000205B1791080027908C206C2088008D207
:1007C200D5790A8004790AC2D5E54C047002F54C49
:1007D200E4FAFDFEFF12053DFC7B08200113120521
:1007E2003DFD7B1030000A12053DFE12053DFF7BE8
:1007F20020EC3382D592D55013C3E43000069FFF1C
:10080200E49EFEE42001039DFDE49CFCE4CBF8C2DF
:1008120001EC700CCFCECDCCE824F8F870F3801741
:10082200C3EF33FFEE33FEED33FDEC33FCEB33FB72
:10083200994002FB0FD8E9EB300105F8D0E0C4483B
:10084200B201C0E00AEC4D4E4F78207B0070C2EA44
:10085200B54C0040BCC0E01208D8D0F0D0E0200176
:1008620004C4C0E0C4B201C0F0120561D0F0D5F0FA
:10087200EB0205B1120517064E5307B558061F4C79
:10088200061B4207B94F07C14407C1490634430753
:10089200C75506F84607564506C247098D50062336
:1008A2002D06272E064A2B062B2306482009762AD8
:1008B20005E34800000642E54CB4FF03754C0612FE
:1008C200053DFC12053DFD12053DFE12053DFF787A
:1008D20042020032790AA2D5200314300509B91068
:1008E200020404B9080104A2D52006025001042022
:1008F20002689202B54B005034C0E07F20300319E9
:100902007F30A20272067205500F12092FC202C274
:1009120006C205C2087F30800F300503E9C0E0122D
:100922000578300503D0E0F9D0E0B54BCC3005179F
:100932007F30B9100C1205787F583004077F788019
:1009420003B908031205783002057F2D0205787F6E
:10095200202008F87F2B2006F322920280CF7F000E
:10096200B4070050052442F8E6FF22286E756C6C2D
:100972002900D20112053D3001F8C201784B30D571
:100982000108F60205E32D5043495812053D2403A0
:10099200B405004001E490098893120569743A1283
:0A09A2000569D203754B040207B586
:10000300F920E72824F950037907E4F42402FB18C4
:10001300DBFDE624FB5014E9600DE4F618E604F674
:0F002300B40A08E4F6D9F57401F60A22C2D52210
:10003200ED33EC3392D5FA602AB4FF33EDC2E77B9D
:10004200FF60067A007957E4227A00796020D504AD
:100052007A00795B224E614E002B494E46002D49B3
:100062004E4600E47A08F608DAFC7B00740722E8C0
:10007200C0E0ECC0E0EDC0E0EEC0E0EFC0E0EA7549
:10008200F010A4CAABF075F04DA42BFBE435F0FCE4
:10009200EA2410FAEB34C5FBEC34D9FCEDC2E7FFDD
:1000A20075F056A4F42411C5F0F434C58FF0A42AD7
:1000B200E5F03BE43CF620E714120403D0E0FFD065
:1000C200E0FED0E0FDD0E0FC1203368014F404120E
:1000D2000403D0E0FFD0E0FED0E0FDD0E0FC12024D
:1000E2002DD0E0F8E6FAEDD2E7CD33EC332482FBF3
:1000F200E4C3CF33CFCE33CECD33CD33DBF37B0767
:1001020075F00A846004F6081B0AE5F0F6088FF021
:10011200740AA4FFACF08EF0740AA42CFEACF0506A
:10012200010C8DF0740AA42CFDE435F0F608DBDE38
:030132007407222D
:10013500020478E86480F8E933E83360110460F07C
:10014500ED33EC337009E8FCE9FDEAFEEBFF220430
:1001550060DED3EB9FEA9EE99DE8C2E78CF0C2F72B
:1001650095F0400CE8CCF8E9CDF9EACEFAEBCFFBF7
:1001750012044385D0F05804700320D5B3E8047009
:10018500075002B2D502048292D5EC0460F7E4CCA4
:10019500C0E0C398F8603B94186008400DD0E0FBC0
:1001A50002045AE4FBFAC9FC8028E830E406E4C9F5
:1001B500FBE4CAFCE830E305E4C9CACBFCE8540714
:1001C5006010F8C3E913F9EA13FAEB13FBEC13FC1F
:1001D500D8F130F52FC3E49CFCEF9BFFEE9AFEEDC2
:1001E50099FDD0E0FBEF4E4D4C701222DB0302046B
:1001F5007FEC2CFCEF33FFEE33FEED33FDED30E706
:10020500EB02045AEF2BFFEE3AFEED39FDD0E0FB91
:1002150050130BBB0003020482ED13FDEE13FEEF3A
:0802250013FFEC13FC02045A64
:10022D00EC4D6011E8497017ED33EC3304600DE4CB
:10023D00FCFFFEFD22E933E8330470F80204781266
:10024D00044358046009E4CC248150062850090267
:10025D00048228400302047FC0E0EB4A7044B98059
:10026D0006D0E0FB02046EEF4E701CBD8008EBFF64
:10027D00EAFEE9FD80EBE98DF0A4FEE5F002031640
:10028D00E9CDF9EAFEEBFFEF89F0A4FCE5F0CE89AC
:10029D00F0A42EFFE435F0CD89F0A42DFEE435F069
:1002AD008067EF4E7005BD80D780C3EF8BF0A4AC97
:1002BD00F0EE8BF0A42CFCE435F0F8EF8AF0A42CD2
:1002CD00E5F038FCE433CB8DF0A42CFCE5F03BF8E5
:1002DD00EE8AF0A42CFCE5F038F8E433CF89F0A4D5
:1002ED002CFCE5F038CF3400CE89F0A42FFFE5F0DB
:1002FD003EFEE433C98DF0A42EFEE5F039CD8AF033
:10030D00A42FFFE5F03EFEE43DFD33D0E0FB5007AA
:10031D000BBB000F020482EC2CFCEF33FFEE33FE1F
:06032D00ED33FD02045A4D
:10033300020482EC5D046005E8590470030204784A
:10034300120443580460F6EC4860F2EC7004FDFEBE
:10035300FF22C860DB2481C85009C398600250069D
:1003630002047F9850CAF582E9294B4A7005AB8293
:1003730002046E75F0007C1A7880C3EF9BEE9AED51
:1003830099400DC3EF9BFFEE9AFEED99FDE842F015
:10039300DC23ACF0D0E0FFD0E0FED0E0FDAB822068
:1003A300E7101BEB60BAEC2CFCEF33FFEE33FEEDF2
:1003B30033FD02045AE803F830E705C0F075F00096
:1003C300EF2FFFEE33FEED33FD40B830E7C280AAD6
:1003D3003F8000004120000042C80000447A000032
:1003E300461C400047C35000497424004B189680B4
:1003F3004CBEBC205A0E1BCA6753C21C749DC5AEAB
:10040300FB60065407601C2323120431EB5438604D
:100413000912041D12042C12022DECF8EDF9EEFA68
:10042300EFCB22EB12042C80F1543803241C9003ED
:10043300D3FE93FC0EEE93FD0EEE930ECE93FF22AE
:10044300E9D2E7C933E833F892D5EDD2E7CD33ECFF
:0704530033FC5002B2D52278
:10045A00EC30E7100FBF000C0EBE00080DBD000403
:10046A000BEB6014A2D5EB13FCED92E7FD2274FFAF
:10047A00FCFDFEFF22E480F8A2D574FF13FC7D8008
:03048A00E480EF1C
:1009B800020ABBE493A3F8E493A34003F68001F290
:1009C80008DFF48029E493A3F85407240CC8C33340
:1009D800C4540F4420C8834004F456800146F6DF0F
:1009E800E4800B0102040810204080900B76E47E1E
:1009F800019360BCA3FF543F30E509541FFEE49304
:100A0800A360010ECF54C025E060A840B8E493A3CA
:100A1800FAE493A3F8E493A3C8C582C8CAC583CAF5
:100A2800F0A3C8C582C8CAC583CADFE9DEE780BEAD
:010B7C000078
:10048D00BB010689828A83E0225002E722BBFE026D
:09049D00E32289828A83E49322A0
:1004A600BB010CE58229F582E5833AF583E022500B
:1004B60006E92582F8E622BBFE06E92582F8E22255
:0D04C600E58229F582E5833AF583E493226F
:1004D300BB010689828A83F0225002F722BBFE0108
:0204E300F32202
:1004E500F8BB010DE58229F582E5833AF583E8F04D
:1004F500225006E92582C8F622BBFE05E92582C8F9
:02050500F222E0
:10050700FAE6FB0808E6F925F0F618E6CA3AF622F5
:10051700D083D082F8E4937012740193700DA3A373
:1005270093F8740193F5828883E473740293686087
:06053700EFA3A3A380DF87
:100B2900EFB40A07740D120B34740A309811A8999E
:100B3900B8130CC2983098FDA899C298B811F6302C
:070B490099FDC299F5992204
:00000001FF
