:0300000002009D5E
:0C009D00787FE4F6D8FD7581080200743D
:10008D00C0F9A4B0999282F880907F7F7F7F7F7FA7
:1000030075B00FE5B0640F6065AFB0EF24F9601A07
:1000130024FC601124FE6008147012E4F508800DBE
:100023007508018008750802800375080375B0F030
:10003300E5B064F06038AFB0EF2450601424E060A2
:100043001924F0601F24707025E50825E025E0FFE2
:1000530022E50825E025E004FF22E50825E025E068
:100063002402FF22E50825E025E02403FF227FFF89
:01007300226A
:100074007EFF120003EF90008D93FF6E6007EE5F2A
:090084006E60028EA0AE0780E957
:00000001FF
