:0300000002041ADD
:0C041A00787FE4F6D8FD7581450204618E
:0F063600253032642D253032642D25303264009A
:0C06230001083201093B010B17010A001D
:03000B0002057873
:10057800C0E0C0D0050A758C3C758AB0D28CE50AFB
:10058800B41421750A000508E508B43C057508008F
:100598000509E509B43C05750900050BE50BB41818
:0905A80003750B00D0D0D0E03245
:10052900D28C758901758C3C758AB075A882753530
:10053900FF753606753736753800850B39753A00FB
:1005490085093B753C0085083D7B007A00792212BC
:10055900006A75350075360075372A7B007A00798F
:0F056900221204A67B007A00792A1205B180BF06
:1006070030C031F932A433B034993592368237F895
:0C061700388039902DBF2E7F20FF43C695
:06062F00010C00010DFEAC
:0604A6008B328A33893419
:1004AC00E4FFF538E538C394085071E4FEAB32AA8A
:1004BC0033A9348F82758300120383FDEE25E0246B
:1004CC0007F582E43406F583E493B5051FEE25E0C9
:1004DC002408F582E43406F583E493AB35AA36A9F7
:1004EC00378538827583001203C280040EBE0EBDA0
:1004FC00EFF582758300A3AB32AA33A934120383C0
:10050C00B42E14AB35E5372538F9E43536FA120339
:0C051C006A547F1203B00F05380F80886E
:0105280022B0
:1005B10075A0FF850C82758300120383F5A0850D5C
:1005C10080AF0D7801EF08800123D8FDF50DE4FF20
:0E05D1000FBFFFFC050CE50CB40803E4F50CAD
:0105DF0022F9
:10042600020529E493A3F8E493A34003F68001F2BE
:1004360008DFF48029E493A3F85407240CC8C333D7
:10044600C4540F4420C8834004F456800146F6DFA6
:10045600E4800B0102040810204080900623E47E0D
:10046600019360BCA3FF543F30E509541FFEE4939B
:10047600A360010ECF54C025E060A840B8E493A362
:10048600FAE493A3F8E493A3C8C582C8CAC583CA8D
:10049600F0A3C8C582C8CAC583CADFE9DEE780BE45
:0106350000C4
:10036A00BB010689828A83E0225002E722BBFE0291
:09037A00E32289828A83E49322C4
:10038300BB010CE58229F582E5833AF583E022502F
:1003930006E92582F8E622BBFE06E92582F8E22279
:0D03A300E58229F582E5833AF583E4932293
:1003B000BB010689828A83F0225002F722BBFE012C
:0203C000F32226
:1003C200F8BB010DE58229F582E5833AF583E8F071
:1003D200225006E92582C8F622BBFE05E92582C81D
:0203E200F22205
:10000E00E5412435F8E6054122783230070278358D
:10001E00E475F0011203E402036A2000EB7F2ED296
:10002E00008018EF540F2490D43440D4FF30040BCA
:10003E00EF24BFB41A0050032461FFE5426002159D
:10004E00420545E5457002054430070D7832E475EA
:10005E00F0011203E4EF0203B00205E07403D207CD
:10006E008003E4C207F5418B328A338934E4F542CA
:10007E00F544F545E54260077F2012004980F5758D
:10008E0043FFC201C200C202C203C205C206C208B9
:10009E00120017FF700D3007057F0012005AAF4592
:1000AE00AE4422B4255FC2D5C204120017FF24D07D
:1000BE00B40A00501A75F00A784230D50508B6FF1A
:1000CE000106C6A426F620D5047002D20380D924D8
:1000DE00CFB41A00EF5004C2E5D20402025AD20184
:1000EE0080C6D20080C0D20280BCD2D580BAD205E2
:1000FE0080B47F201200492002077401B5420040EF
:10010E00F112000EFF120049020082D208D20680C0
:10011E009512000EFB12000EFA12000EF94A4B70E9
:10012E0006792B7A037BFF20022EE542602A7E00A1
:10013E008E8275830012038360060EEE654370F0A7
:10014E00C2D5EBC0E0EAC0E0E9C0E0EE1202A1D0F9
:10015E00E0F9D0E0FAD0E0FB12036AFF60AAEBC030
:10016E00E0EAC0E0E9C0E0120049D0E02401F9D095
:10017E00E03400FAD0E0FBE5430460DCD543D980DF
:10018E00877BFF7A02799DD202809C79108002795A
:10019E0008C206C2088008D2D5790A8004790AC23C
:1001AE00D5E543047002F543E4FAFDFEFF12000E9E
:1001BE00FC7B0820011312000EFD7B1030000A128A
:1001CE00000EFE12000EFF7B20EC3382D592D5502E
:1001DE0013C3E43000069FFFE49EFEE42001039D5E
:1001EE00FDE49CFCE4CBF8C201EC700CCFCECDCC80
:1001FE00E824F8F870F38017C3EF33FFEE33FEED0B
:10020E0033FDEC33FCEB33FB994002FB0FD8E9EBEB
:10021E00300105F8D0E0C448B201C0E00AEC4D4E02
:10022E004F78207B0070C2EAB5430040BCC0E0129C
:10023E0002A3D0F0D0E0200104C4C0E0C4B201C0DB
:10024E00F0120032D0F0D5F0EB0200821203F4016E
:10025E001F5301995800F04C00EC42019D4F01A52F
:0F026E004401A54901054301AB55018F46018F9E
:10027D0045018F47034B5000F42D00F82E011B2B29
:10028D0000FC2301192003342A00B4480000011397
:10029D003F3F3F00790AA2D5200314300509B9105C
:1002AD00020404B9080104A2D5200602500104205D
:1002BD0002689202B542005034C0E07F203003192D
:1002CD007F30A20272067205500F1202FAC202C2EC
:1002DD0006C205C2087F30800F300503E9C0E01269
:1002ED000049300503D0E0F9D0E0B542CC30051718
:1002FD007F30B9100C1200497F583004077F788089
:10030D0003B908031200493002057F2D0200497F11
:10031D00202008F87F2B2006F322920280CF286E32
:10032D00756C6C2900D20112000E3001F8C20178F3
:10033D004230D50108F60200B42D50434958120041
:10034D000E2403B405004001E49003469312003AD5
:0D035D00743A12003AD2037542040201996D
:1003E400FAE6FB0808E6F925F0F618E6CA3AF6221A
:1003F400D083D082F8E4937012740193700DA3A398
:1004040093F8740193F5828883E4737402936860AB
:06041400EFA3A3A380DFAB
:1005E000EFB40A07740D1205EB740A309811A8993C
:1005F000B8130CC2983098FDA899C298B811F6307B
:0706000099FDC299F5992252
:00000001FF
