:03000000020422D5
:0C042200787FE4F6D8FD7581740204694F
:10073200253032642D253032642D25303264003369
:080742002D2D2D2D303735005F
:0C076200011B38011C39011D08011A00A0
:10071500E51BB43C05E4F51B051CE51CB43C05E4F0
:0D072500F51C051DE51DB41803E4F51D22AB
:03000B000204AE3E
:1004AE00C0E0C0F0C083C082C0D075D000C000C014
:0D04BE0001C002C003C004C005C006C00795
:1004CB00051A758C3C758AB0E51A6414702BF51AF5
:1004DB00051B1207157564FF756507756632756721
:1004EB0000851D68756900851C6A756B00851B6C22
:1004FB007B007A007912120072753C00753D007515
:0B050B003E0A7B007A007912120531D5
:10051600D007D006D005D004D003D002D001D00039
:0B052600D0D0D082D083D0F0D0E032E3
:030003000205B43F
:1005B400C0E0C0F0C083C082C0D075D000C000C00D
:1005C40001C002C003C004C005C006C007051D1257
:1005D40007157564FF756507756632756700851DB7
:1005E40068756900851C6A756B00851B6C7B007AD5
:1005F400007912120072D007D006D005D004D003BF
:10060400D002D001D000D0D0D082D083D0F0D0E0BE
:0106140032B3
:03001300020615CD
:10061500C0E0C0F0C083C082C0D075D000C000C0AB
:1006250001C002C003C004C005C006C007051C12F6
:1006350007157564FF756507756632756700851D55
:1006450068756900851C6A756B00851B6C7B007A73
:10065500007912120072D007D006D005D004D0035D
:10066500D002D001D000D0D0D082D083D0F0D0E05D
:010675003252
:100676007564FF7565077566417B007A007912120D
:100686000072753C00753D00753E0A7B007A007964
:1006960012120531758901758C3C758AB075A8876B
:1006A600D28CD288D28A7B007A00790A1206B78069
:0106B600F54E
:10074A0030C031F932A433B034993592368237F851
:08075A00388039902DBF20FF0B
:06076E000108000109FE74
:060531008B398A3A893B78
:10053700E4FFF53FE53FC394085071E4FEAB39AAE9
:100547003AA93B8F8275830012038BFDEE25E024C9
:100557004AF582E43407F583E493B5051FEE25E0F9
:10056700244BF582E43407F583E493AB3CAA3DA919
:100577003E853F827583001203CA80040EBE0CBD00
:10058700EFF582758300A3AB39AA3AA93B12038B17
:10059700B42E14AB3CE53E253FF9E4353DFA120392
:0C05A70072547F1203B80F053F0F8088CC
:0105B3002225
:1006B70075A0FF85088275830012038BF5A0850955
:1006C70080AF097801EF08800123D8FDF509E4FF21
:1006D700FE0FBF00010EBE01F8BFF4F50508E508DF
:0606E700B40803E4F5086D
:0106ED0022EA
:10042E00020676E493A3F8E493A34003F68001F268
:10043E0008DFF48029E493A3F85407240CC8C333CF
:10044E00C4540F4420C8834004F456800146F6DF9E
:10045E00E4800B0102040810204080900762E47EC5
:10046E00019360BCA3FF543F30E509541FFEE49393
:10047E00A360010ECF54C025E060A840B8E493A35A
:10048E00FAE493A3F8E493A3C8C582C8CAC583CA85
:10049E00F0A3C8C582C8CAC583CADFE9DEE780BE3D
:010774000084
:10037200BB010689828A83E0225002E722BBFE0289
:09038200E32289828A83E49322BC
:10038B00BB010CE58229F582E5833AF583E0225027
:10039B0006E92582F8E622BBFE06E92582F8E22271
:0D03AB00E58229F582E5833AF583E493228B
:1003B800BB010689828A83F0225002F722BBFE0124
:0203C800F3221E
:1003CA00F8BB010DE58229F582E5833AF583E8F069
:1003DA00225006E92582C8F622BBFE05E92582C815
:0203EA00F222FD
:10001600E5702464F8E6057022786130220278647F
:10002600E475F0011203EC020372201BEB7F2ED263
:100036001B8018EF540F2490D43440D4FF301F0B8C
:10004600EF24BFB41A0050032461FFE57160021566
:10005600710574E5747002057330220D7861E475DC
:10006600F0011203ECEF0203B80206EE7403D2228B
:100076008003E4C222F5708B618A628963E4F571BC
:10008600F573F574E57160077F2012005180F575F0
:1000960072FFC21CC21BC21DC21EC220C221C223C5
:1000A60012001FFF700D3022057F00120062AF7430
:1000B600AE7322B4255FC2D5C21F12001FFF24D023
:1000C600B40A00501A75F00A787130D50508B6FFE3
:1000D6000106C6A426F620D5047002D21E80D924B5
:1000E600CFB41A00EF5004C2E5D21F020262D21C3E
:1000F60080C6D21B80C0D21D80BCD2D580BAD22089
:1001060080B47F20120051201D077401B571004094
:10011600F1120016FF12005102008AD223D221806A
:1001260095120016FB120016FA120016F94A4B70C9
:100136000679337A037BFF201D2EE571602A7E0047
:100146008E8275830012038B60060EEE657270F068
:10015600C2D5EBC0E0EAC0E0E9C0E0EE1202A9D0E9
:10016600E0F9D0E0FAD0E0FB120372FF60AAEBC020
:10017600E0EAC0E0E9C0E0120051D0E02401F9D085
:10018600E03400FAD0E0FBE5720460DCD572D98079
:10019600877BFF7A0279A5D21D809C79108002792F
:1001A60008C221C2238008D2D5790A8004790AC2FE
:1001B600D5E572047002F572E4FAFDFEFF12001630
:1001C600FC7B08201C13120016FD7B10301B0A1244
:1001D6000016FE120016FF7B20EC3382D592D55016
:1001E60013C3E4301B069FFFE49EFEE4201C039D20
:1001F600FDE49CFCE4CBF8C21CEC700CCFCECDCC5D
:10020600E824F8F870F38017C3EF33FFEE33FEED02
:1002160033FDEC33FCEB33FB994002FB0FD8E9EBE3
:10022600301C05F8D0E0C448B21CC0E00AEC4D4EC4
:100236004F78207B0070C2EAB5720040BCC0E01265
:1002460002ABD0F0D0E0201C04C4C0E0C4B21CC095
:10025600F012003AD0F0D5F0EB02008A1203FC014E
:10026600275301A15800F84C00F44201A54F01ADF7
:0F0276004401AD49010D4301B35501974601976E
:100285004501974703535000FC2D01002E01232BF8
:10029500010423012120033C2A00BC480000011B66
:1002A5003F3F3F00790AA2D5201E14302009B9101E
:1002B500020404B9080104A2D5202102500104203A
:1002C5001D68921DB571005034C0E07F20301E19A5
:1002D5007F30A21D72217220500F120302C21DC26F
:1002E50021C220C2237F30800F302003E9C0E012F5
:1002F5000051302003D0E0F9D0E0B571CC302017A3
:100305007F30B9100C1200517F58301F077F78805D
:1003150003B90803120051301D057F2D0200517FDE
:10032500202023F87F2B2021F322921D80CF286ED9
:10033500756C6C2900D21C120016301CF8C21C7892
:100345007130D50108F60200BC2D50434958120002
:10035500162403B405004001E490034E93120042B5
:0D036500743A120042D21E7571040201A10B
:1003EC00FAE6FB0808E6F925F0F618E6CA3AF62212
:1003FC00D083D082F8E4937012740193700DA3A390
:10040C0093F8740193F5828883E4737402936860A3
:06041C00EFA3A3A380DFA3
:1006EE00EFB40A07740D1206F9740A309811A8991E
:1006FE00B8130CC2983098FDA899C298B811F6306C
:07070E0099FDC299F5992243
:00000001FF
