:030000000206BB3A
:0C06BB00787FE4F6D8FD75815602070236
:1008C400353120202020253032640035322020208C
:1008D400202530326400253032642D253032642DD9
:1008E40025303264002530346425303264253032BA
:0B08F4006400332D2D2D2D3037350012
:100936000154FE0156FE015100015500014C3801DB
:100946004D39015308015214014E04024F07E701C5
:020956004B0054
:1007CA00E54E64016023E54E6403601DE54E640551
:1007DA006017E54E64076011E54E6408600BE54E4C
:1007EA00640A6005E54EB40C037F1F22E54E6404DB
:1007FA006011E54E6406600BE54E64096005E54E3E
:10080A00B40B037F1E22AE4FAF507C017D901205C0
:10081A002EED4C6014E55054037011AE4FAF50FCEE
:0F082A007D6412052EED4C60037F1D227F1C2282
:10083900E54CB43C08E4F54C755510054DE54DB44F
:100849003C05E4F54D0553E553B41805E4F55305A6
:10085900521207CAEF2401FFE433FE7C00EFB552C0
:1008690009ECB50605755201054EE54EB40D0B753B
:0B0879004E010550E5507002054F22B3
:10036A0075B0FE85B056E554655670030204B0E5D3
:10037A005664FE60030204B0E55464BE7068055119
:10038A00C28CE551B40118753AFF753B08753CC437
:10039A00753D0085533E7B007A00791212006AE5AA
:1003AA0051B40218753AFF753B08753CCF753D008C
:1003BA00854D3E7B007A00791212006AE55164038A
:1003CA007024F551753AFF753B08753CDAF53D85A1
:1003DA00533EF53F854D40F541854C42FB7A007905
:1003EA001212006AD28CE554B4DE22E551B4011D22
:1003FA000553120839753AFF753B08753CC4753DBB
:10040A000085533E7B007A00791212006AE554B4E3
:10041A00DE22E551B4021D054D120839753AFF7501
:10042A003B08753CCF753D00854D3E7B007A0079CF
:10043A001212006AE55464EE702AE55164017024D0
:10044A00E5537003FF8004E55314FF8F53753AFF99
:10045A00753B08753CC4753D008F3E7B007A007978
:10046A001212006AE55464EE702AE551640270249F
:10047A00E54D7003FF8004E54D14FF8F4D753AFF7B
:10048A00753B08753CCF753D008F3E7B007A00793D
:10049A001212006A753A00753B00753C0A7B007AB5
:0A04AA00007912120747855654220C
:03000B000205B932
:1005B900C0E0C0F0C083C082C0D075D000C000C008
:0D05C90001C002C003C004C005C006C00789
:1005D600054B758C3C758AB0E555700EE590F46058
:1005E60009E54B540370037590FFE555D39400401D
:1005F60019E54B540370137FFEAE55155574109EC6
:10060600F8EF08800123D8FDF590E54B6414600CE3
:10061600E54B64286006E54B643C7029054C1208DE
:1006260039753AFF753B08753CDA753D0085533ED2
:10063600753F00854D40754100854C427B007A0030
:10064600791212006AE54B6450600CE54B646460F5
:1006560006E54B64787029054C120839753AFF7522
:100666003B08753CE9854F3D85503E753F00854EFC
:10067600407541008552427B007A00791212006A69
:10068600E54BB47803754B00753A00753B00753C35
:0A0696000A7B007A00791212074770
:1006A000D007D006D005D004D003D002D001D000AE
:0B06B000D0D0D082D083D0F0D0E03258
:10088400753AFF753B08753CF67B007A00791212C5
:10089400006A753A00753B00753C0A7B007A007962
:1008A40012120747758901758C3C758AB075A88248
:1008B400D28C12036A7B007A00790A1208FF80F254
:1009860030C031F932A433B034993592368237F813
:08099600388039902DBF20FFCD
:060958000108000109FE88
:060747008B378A38893966
:10074D00E4FFF53DE53DC394085071E4FEAB37AAD7
:10075D0038A9398F827583001204CDFDEE25E02472
:10076D0086F582E43409F583E493B5051FEE25E0A3
:10077D002487F582E43409F583E493AB3AAA3BA9C7
:10078D003C853D8275830012050C80040EBE0CBDA8
:10079D00EFF582758300A3AB37AA38A9391204CDC2
:1007AD00B42E14AB3AE53C253DF9E4353BFA120481
:0C07BD00B4547F1204FA0F053D0F808831
:0107C900220D
:1008FF0075A0FF8508827583001204CDF5A08509C8
:10090F0080AF097801EF08800123D8FDF509E4FFD6
:10091F00FE0FBF00010EBE01F8BFF4F50508E50894
:06092F00B40803E4F50822
:01093500229F
:1006C700020884E493A3F8E493A34003F68001F2BD
:1006D70008DFF48029E493A3F85407240CC8C33334
:1006E700C4540F4420C8834004F456800146F6DF03
:1006F700E4800B0102040810204080900936E47E54
:10070700019360BCA3FF543F30E509541FFEE493F7
:10071700A360010ECF54C025E060A840B8E493A3BE
:10072700FAE493A3F8E493A3C8C582C8CAC583CAE9
:10073700F0A3C8C582C8CAC583CADFE9DEE780BEA1
:01095E000098
:1004B400BB010689828A83E0225002E722BBFE0246
:0904C400E32289828A83E4932279
:1004CD00BB010CE58229F582E5833AF583E02250E4
:1004DD0006E92582F8E622BBFE06E92582F8E2222E
:0D04ED00E58229F582E5833AF583E4932248
:1004FA00BB010689828A83F0225002F722BBFE01E1
:02050A00F322DA
:10050C00F8BB010DE58229F582E5833AF583E8F025
:10051C00225006E92582C8F622BBFE05E92582C8D1
:02052C00F222B9
:10052E00BC000BBE0029EF8DF084FFADF022E4CCB1
:10053E00F875F008EF2FFFEE33FEEC33FCEE9DEC7A
:10054E00984005FCEE9DFE0FD5F0E9E4CEFD22EDC0
:10055E00F8F5F0EE8420D21CFEADF075F008EF2F0A
:10056E00FFED33FD4007985006D5F0F222C398FDFB
:05057E000FD5F0EA2298
:10000E00E546243AF8E60546227837301002783A6B
:10001E00E475F0011205830204B42009EB7F2ED2A1
:10002E00098018EF540F2490D43440D4FF300D0BB8
:10003E00EF24BFB41A0050032461FFE54760021598
:10004E0047054AE54A7002054930100D7837E475C8
:10005E00F001120583EF0204FA02095F7403D21055
:10006E008003E4C210F5468B378A388939E4F547A8
:10007E00F549F54AE54760077F2012004980F5757E
:10008E0048FFC20AC209C20BC20CC20EC20FC21175
:10009E00120017FF700D3010057F0012005AAF4A84
:1000AE00AE4922B4255FC2D5C20D120017FF24D06F
:1000BE00B40A00501A75F00A784730D50508B6FF15
:1000CE000106C6A426F620D5047002D20C80D924CF
:1000DE00CFB41A00EF5004C2E5D20D02025AD20A72
:1000EE0080C6D20980C0D20B80BCD2D580BAD20EC7
:1000FE0080B47F20120049200B077401B5470040E1
:10010E00F112000EFF120049020082D211D20F80AE
:10011E009512000EFB12000EFA12000EF94A4B70E9
:10012E0006792B7A037BFF200B2EE547602A7E0093
:10013E008E827583001204CD60060EEE654870F057
:10014E00C2D5EBC0E0EAC0E0E9C0E0EE1202A1D0F9
:10015E00E0F9D0E0FAD0E0FB1204B4FF60AAEBC0E5
:10016E00E0EAC0E0E9C0E0120049D0E02401F9D095
:10017E00E03400FAD0E0FBE5480460DCD548D980D5
:10018E00877BFF7A02799DD20B809C791080027951
:10019E0008C20FC2118008D2D5790A8004790AC22A
:1001AE00D5E548047002F548E4FAFDFEFF12000E94
:1001BE00FC7B08200A1312000EFD7B1030090A1278
:1001CE00000EFE12000EFF7B20EC3382D592D5502E
:1001DE0013C3E43009069FFFE49EFEE4200A039D4C
:1001EE00FDE49CFCE4CBF8C20AEC700CCFCECDCC77
:1001FE00E824F8F870F38017C3EF33FFEE33FEED0B
:10020E0033FDEC33FCEB33FB994002FB0FD8E9EBEB
:10021E00300A05F8D0E0C448B20AC0E00AEC4D4EF0
:10022E004F78207B0070C2EAB5480040BCC0E01297
:10023E0002A3D0F0D0E0200A04C4C0E0C4B20AC0C9
:10024E00F0120032D0F0D5F0EB02008212059301CD
:10025E001F5301995800F04C00EC42019D4F01A52F
:0F026E004401A54901054301AB55018F46018F9E
:10027D0045018F47034B5000F42D00F82E011B2B29
:10028D0000FC2301192003342A00B4480000011397
:10029D003F3F3F00790AA2D5200C14300E09B9104A
:1002AD00020404B9080104A2D5200F025001042054
:1002BD000B68920BB547005034C0E07F20300C190D
:1002CD007F30A20B720F720E500F1202FAC20BC2C8
:1002DD000FC20EC2117F30800F300E03E9C0E01245
:1002ED000049300E03D0E0F9D0E0B547CC300E1701
:1002FD007F30B9100C1200497F58300D077F788080
:10030D0003B90803120049300B057F2D0200497F08
:10031D00202011F87F2B200FF322920B80CF286E17
:10032D00756C6C2900D20A12000E300AF8C20A78D8
:10033D004730D50108F60200B42D5043495812003C
:10034D000E2403B405004001E49003469312003AD5
:0D035D00743A12003AD20C7547040201995F
:10058300FAE6FB0808E6F925F0F618E6CA3AF62279
:10059300D083D082F8E4937012740193700DA3A3F7
:1005A30093F8740193F5828883E47374029368600B
:0605B300EFA3A3A380DF0B
:10095F00EFB40A07740D12096A740A309811A89936
:10096F00B8130CC2983098FDA899C298B811F630F8
:07097F0099FDC299F59922D0
:00000001FF
